:020000040800F2
:100000008005002001010008DD3D0008E9300008FE
:10001000D93D00087D0A0008C13E0008000000002C
:10002000000000000000000000000000E53D0008A6
:10003000810A000800000000E13D0008E93D0008D9
:100040001B0100081B0100081B0100081B01000820
:100050001B0100081B0100081B0100081B01000810
:100060001B0100081B0100081B0100081B01000800
:100070001B0100081B0100081B0100081B010008F0
:100080001B0100081B0100081B0100081B010008E0
:100090001B0100081B0100081B0100081B010008D0
:1000A0001B0100081B0100081B0100081B010008C0
:1000B0001B0100081B0100081B0100081B010008B0
:1000C0001B0100081B0100081B0100081B010008A0
:1000D0001B0100081B0100081B010008B53E0008B9
:1000E0001B0100081B0100081B010008DFF80CD0F1
:1000F00000F014FC00480047C13F000880050020C4
:100100000648804706480047FEE7FEE7FEE7FEE7B1
:10011000FEE7FEE7FEE7FEE7FEE7FEE7ED3D00084F
:10012000ED000008F0B480EA0102D40F4200B2EB07
:10013000410F02D20246084611464A0042D0C30D82
:10014000DDB2C1F3C752AD1A202D35DAC1F3160165
:1001500041F4000204B15242C5F1200602FA06F150
:100160002A411044B3EBD05F23D0C4B1012DA0EBE2
:10017000C35009DCF0BC4FF0004202EAC352DBB2CC
:1001800000F5000000F0E1BA400000F1807000EBE3
:10019000C350A0F1807040EAD170490009E04908DD
:1001A00041EAC071A0EBC35000F50000400800EB2D
:1001B000C350F0BC00F0C0BA6142012202EB410121
:1001C000001BF6E7F0BC704781F00041AAE780F021
:1001D0000040A7E780EA010210B502F000434000AA
:1001E00022D04A001FD0010E01EB1261C0F356006D
:1001F000C2F3560240F4000042F40002A0FB0220C9
:1002000000047F39140400D0401C50EA124001D48D
:100210004000491EC2B20C0604EBD010401C40083E
:10022000802A02D003E0002010BD20F00100002948
:1002300000DA0020184310BD2DE9FE4F804681EA08
:100240000300C00F0C46009021F0004123F0004550
:10025000B8EB0200A94105D24046214690461C4613
:100260000B46024623F00040104347D0270DC7F34A
:100270000A00C3F30A510290401A019040286BDA39
:10028000C3F3130040F4801B0098924620B1002372
:10029000D2EB030A63EB0B0B01985946C0F1400205
:1002A000504600F018FA06460D4650465946019A47
:1002B00000F030FA10EB08006141002487EA115287
:1002C00084EAE7731A4340D0009A62B3019A012A84
:1002D0004FEA075215DC001B61EB02014FF00042B0
:1002E00002EA0752CDE90042001C41F58011324676
:1002F0002B4600F067FA03B0BDE8F08F4046214678
:10030000F9E7001B61EB0201001C41F580130018A6
:100310005B412018A2F5001747EB030140EAD570B6
:10032000B6196D4111E06D084FEA360645EAC07511
:100330004FEA0752001B61EB0201001C41F58011DE
:1003400049084FEA30000019514132462B4603B0AC
:10035000BDE8F04F00F027BA0098012240000023CA
:10036000D0EB020263EBE073009821464FEAE074A1
:10037000B8EB000061EB0401E9E783F000435BE7C1
:1003800081F0004158E72DE9FE4F81EA030404F0B3
:10039000004421F0004100944FF0000B23F0004393
:1003A00050EA01045ED052EA03045BD0C3F30A545E
:1003B000C1F30A552C44A4F2F3340194A0FB025477
:1003C000C1F3130141F48011C3F3130343F4801309
:1003D00001FB024400FB034E840A970A44EA81545D
:1003E00047EA8357A4FB076802958D0A05FB07853A
:1003F0004FEA932C04FB0C542705029D4FEA065844
:1004000047EA1637B5EB08056EEB070C870E920E20
:1004100047EA811742EA8312A7FB0201B6EB0B0100
:1004200064EB00042B0D43EA0C335E1844EB1C50C4
:10043000DA465146E7FB0201C5F313044FEA0B33DA
:1004400043EA14534FEA0432019C43EA0603A4F141
:100450000C040294009CCDE900B400F0B3F903B0A1
:10046000BDE8F08F00200146F9E72DE9F04D81EA63
:10047000030404F0004B21F0004514464FF0000A3D
:1004800023F0004150EA050220D054EA01021DD0B9
:10049000C5F30A570246C5F31303C1F31300C1F3B2
:1004A0000A5640F4801543F48013A7EB0608101B8E
:1004B000D64608F2FD3873EB050002D308F10108B7
:1004C00001E092185B41B8F1000F03DA0020014609
:1004D000BDE8F08D00204FF48011064684460EE002
:1004E000171B73EB050705D3121B63EB05030643CC
:1004F0004CEA010C49084FEA300092185B4150EA7F
:100500000107EDD152EA030012D082EA040083EA27
:100510000501084305D0101BAB4106D20122002380
:1005200006E000224FF0004302E06FF0010253109A
:100530001AEB06004CEB085110EB0A0041EB0B01E3
:10054000BDE8F04D00F02FB9002801DBC0F10040FC
:10055000002901DBC1F10041814201D20120704735
:1005600000207047002801DBC0F10040002901DBBA
:10057000C1F10041814201D901207047002070473C
:1005800030B5041E71F1000404DB4FF0004440421A
:1005900064EB0101141E73F1000405DB1C464FF0EF
:1005A0000043524263EB0403101A8B4101D2012035
:1005B00030BD002030BD30B5041E71F1000404DBF5
:1005C0004FF00044404264EB0101141E73F100043B
:1005D00005DB1C464FF00043524263EB0403801AD4
:1005E000994101D2012030BD002030BDC10F80EA09
:1005F000E0700844CA079623002100F0A6B80EB5A3
:10060000C10F80EAE0700844CA07002140F233437A
:100610008DE80E000A460B4600F0D4F803B000BD8A
:100620000EB540F2334102910021CDE900110A4696
:100630000B4600F0C7F803B000BD70B5C1F30A5215
:1006400001F000450024C1F3130140F2FF3341F4EF
:1006500080119A4201DA002070BD40F233439A4281
:10066000A2F2334203DC524200F044F800E0904032
:100670002C43F1D0404270BD00F0004230F0004009
:100680000AD0C10D01F56071C0F3160042EA0151B4
:10069000C20840071143704700200146704701F02F
:1006A000004330B421F0004150EA010206D00A0DA7
:1006B000A2F56072C1F31301002A02DC30BC0020F5
:1006C0007047440F44EAC104C100E01830BC00EB9D
:1006D000C25000F031B8202A04DB203A00FA02F1BF
:1006E000002070479140C2F1200320FA03F3194320
:1006F00090407047202A04DB203A21FA02F00021C2
:10070000704721FA02F3D040C2F120029140084321
:1007100019467047202A06DBCB17203A41FA02F02F
:1007200043EAE07306E041FA02F3D040C2F120024E
:1007300091400843194670470029A8BF7047401CE4
:10074000490008BF20F00100704710B4B0FA80FCE7
:1007500000FA0CF050EA010404BF10BC704749B124
:10076000CCF1200421FA04F411FA0CF118BF012194
:1007700021430843A3EB0C01CB1D4FEA00614FEA74
:10078000102042BF002010BC704700EBC350104443
:100790000029A4BF10BC7047401C490008BF20F0CE
:1007A000010010BC704710B5141E73F1000408DA84
:1007B000401C41F1000192185B411A4301D120F025
:1007C000010010BD2DE9F04D92469B4611B1B1FAE2
:1007D00081F202E0B0FA80F220329046FFF77BFF10
:1007E00004460F4640EA0A0041EA0B0153465A46C6
:1007F000084313D0114653EA010019D0C8F1400252
:100800005046FFF777FF05460E465046594642468A
:10081000FFF761FF084305D0012004E02046394678
:10082000BDE8F08D0020054346EAE0762C433743CF
:100830000A986305E40AA0EB08000022FD0A44EAD6
:1008400047540A3002D500200146E9E70105101996
:100850006941DDE9084500196941BDE8F04DA2E7AD
:100860002DE9FE4FC3F30A5701F000450024C1F300
:100870000A56C3F31303C1F3130143F4801312EBBD
:10088000020AA64641F48011009543EB030CA7F140
:10089000010B16E0B0EB0A0061EB0C01071E71F1D1
:1008A000000707DA4FF00008D0EB080085F000459C
:1008B00068EB0101171A73EB0107EBD3761E0018E2
:1008C00049415E45F6DA50EA010209D0CDE900E57A
:1008D000002213460296FFF775FF03B0BDE8F08FC4
:1008E00020460099F9E7002801DBC0F1004000290B
:1008F00001DBC1F10041814202D24FF0004004E02F
:100900004FF0005001D14FF0C040EFF3008121F0D3
:100910007F4141EA000181F300887047064C074D92
:1009200006E0E06840F0010394E8070098471034BF
:10093000AC42F6D3FFF7DEFB5C4E00087C4E0008AD
:1009400070B521F0004303430CD0C1F30A550024D5
:10095000D5EB040564EB0403D617AD1AB34102DBF3
:100960000020014670BD201841EB025170BD00000F
:10097000B0B5044600688168C90709D0816821F0D4
:100980000101816000F0FEFC21688968C90701D17E
:100990000020B0BD054602E08068C007F8D000F036
:1009A000F1FC411B20680329F6D38168C907F3D005
:1009B000A06A40F01000A062E06A40F00100E0622E
:1009C0000120B0BDB0B582B004460020019021687E
:1009D0008A68D2074FD1886840F00100886040F2F1
:1009E0001800C2F2000000684DF68361C4F21B31AA
:1009F000A0FB0101880C01900198A0B10198013879
:100A00000190019878B1019801380190019850B196
:100A1000019801380190019828B10198013801909E
:100A200001980028EAD100F0ADFC21688968C90767
:100A30001CD1054603E000BF8068C0071AD100F052
:100A4000A1FC411B20680329F6D38168C907F3D1B3
:100A5000A06A40F01000A062E06A40F00100E0628D
:100A6000002084F82400012002B0B0BD002002B0B4
:100A7000B0BD00BF002002B0B0BD0000FEE7000026
:100A800070470000EFF3108072B600BFFEE7000071
:100A900070B582B004460020019094F8240001282B
:100AA00004D10225284602B070BD00BF012084F8A1
:100AB00024002046FFF75CFF054600286CD1A06AA1
:100AC00041F2021188430230A06240F21800C2F2E3
:100AD00000000668022001F025F8B6FBF0F04000A7
:100AE00001900198A8B100BF0198013801900198C8
:100AF00078B1019801380190019850B101980138FE
:100B00000190019828B101980138019001980028BE
:100B1000EAD12046FFF756FF2068816841F00801BE
:100B2000816000F02FFC21688A6812070ED4886863
:100B300040F00400886000F025FC216889684907BE
:100B400014D401206FF0030122E000BF064602E04A
:100B500088680007EBD500F015FC801B21680B2886
:100B6000F6D388680007F3D50EE000BF064602E022
:100B700080684007E5D500F005FC811B20680B2943
:100B8000F6D381684907F3D5012510206FF01201D3
:100B9000A26A11400843A062002084F8240028467D
:100BA00002B070BDF0B581B00022009290F8242010
:100BB000012A05D14FF0020C604601B0F0BD00BF24
:100BC0008368D1F804E0012280F82420A3B10A69E7
:100BD0000668BEEB020505EB8505B46B05F10F0554
:100BE0004FF01F0303FA05F324EA030323F4401430
:100BF00016D9B4631FE000BFBEF1010F40F0AA8018
:100C000006684FF0000CB26B0D686FF3150242EAF4
:100C1000C532B2634FF0010EB268D20710D016E0B1
:100C200040F2000CCFF6F07C0B680CEB0252AB40AC
:100C300022431A43B2634FF0000CB268D20706D1C8
:100C4000B26847F201038C699A432243B2604A7D3D
:100C5000012A1FD00B7D012B30D00A68092A3FD909
:100C600002EB4204F3681E3C07258F68A540AB43A6
:100C700007FA04F4234322F00104102CF36049D155
:100C8000B368012543F40003B360BEF1030F36D10E
:100C900044E000BF8B6900F12804B3F5E04F4FF04A
:100CA000200314BF4FF0010C341D08BF4FF48063C4
:100CB00025682B4323600B7D012BCED100F1280347
:100CC000002A4FF0200214BF4FF0010C331D08BF63
:100CD0004FF480521C6822431A600A68092ABFD860
:100CE000336902EB420407258F68A540AB4307FA3E
:100CF00004F4234333610025BEF1030F0ED0BEF18F
:100D0000020F0FD0BEF1010F14BF06F1200406F14F
:100D1000140409E00025BEF1030FF0D106F11C0414
:100D200002E000BF06F11804236840F6FF77C968A7
:100D3000BB431943002D216048D042F20041C4F268
:100D400001018E4212D0816A4FF0010C41F0200166
:100D500081623BE00668826A4FF0010C42F020029B
:100D60008262B268D2073FF46BAF70E7896809020C
:100D70002CD4B168102A41F40001B16026D140F2B0
:100D80001801C2F2000109684DF68362C4F21B32F9
:100D9000A1FB0212910C01EB810149000091009925
:100DA000A1B1009901390091009979B100990139F7
:100DB0000091009951B1009901390091009929B130
:100DC00000990139009100990029EAD1002180F8A9
:100DD0002410604601B0F0BD10B5044690F8240020
:100DE000012804BF022010BD012084F82400204601
:100DF000FFF7E8FD20B1002184F8241010BD00BFEA
:100E000042F204422168A06AC4F2010243F20103E3
:100E1000984302F57F7300F580509942A06203D099
:100E2000A06A20F4801006E0106810F4702FF7D04C
:100E3000A06A40F48010A062A06AC0055CBF0020D8
:100E4000E062002084F824006FF004040C604C6819
:100E5000640548BF10BD886800F4E040B0F5E04F7D
:100E600005D199420AD1106810F4702F06D0886815
:100E700040F400408860002010BD00BF886840F446
:100E800002108860002010BDB0B5002800F0A880D6
:100E90000446806A20B121688868C0070BD114E03D
:100EA0000020E06284F82400204600F09BF82168CE
:100EB0008868C00709D0886820F00100886000F0C9
:100EC00061FA21688A68D20726D1A06AC0063AD49E
:100ED000A06A41F2021290430230A062E069D4E9B4
:100EE000013240EA030C531EB3FA83F35D09134643
:100EF000B2F5807F18BF2B02207D257B01284CEAAC
:100F0000450030D135B3A56A45F02005A562E56AF4
:100F100045F00105E56226E0054602E08868C00765
:100F2000D3D000F02FFA401B21680328F6D388683D
:100F3000C007F3D0A06A40F01000A062E06A40F061
:100F40000100E062A06AA06A40F01000A0620120E7
:100F5000B0BD00BFD4F818C04EF60005CFF6FF753F
:100F600005EB4C352B434D68B2F5807F25F4694580
:100F700043EA05034B608B684FF2FD75CFF6E175D0
:100F800003EA050343EA00038B6001D0012A07D17D
:100F900022690023CFF6F07303EB025201E000BF99
:100FA0000022CB6A23F470031A43CA62896840F6B0
:100FB000FE62CFF61F721140814207D10020E0622D
:100FC000A16A012262F30101A162B0BDA06A40F0F2
:100FD000100020F00200A062E06A40F00100E06230
:100FE0000120B0BD80B586B0014640F60000C4F2D5
:100FF0000100096800F5E05291424FF00001CDE98F
:10100000041101D006B080BD41F21801C4F2020102
:101010000A6842F400720A600A6802F400720192DF
:10102000019A0A6842F004020A60096801F00401AA
:1010300001910199062102910321039102A900F077
:1010400091F806B080BD0000014690F8210002280A
:1010500016D10868D1E90FC3026822F00E020260BF
:10106000026822F001020260012000FA03F2CCF8CB
:10107000042081F821000020002281F82020704700
:10108000042088630120002281F82020704700009E
:1010900080B590F82110022924D10268116821F04E
:1010A0000E0111602F211368C4F202018A4240F23E
:1010B0000401C4F2020123F00103136016DD3023A2
:1010C000C4F202039A421DD04423C4F202039A429E
:1010D0001CD05823C4F202039A421DD14FF480332E
:1010E00022E000BF04218163012080BD0823C4F2F7
:1010F00002039A420ED01C23C4F202039A420BD17F
:10110000102311E04FF480730EE000BF4FF48053C2
:101110000AE000BF012307E001F1680C4FF0807383
:10112000624508BF4FF480130B60416B4FF480722F
:10113000028401B18847002080BD0000B0B504469C
:1011400000F020F9054640F21000C2F200000078DD
:10115000611C18BF044400BF00F014F9401BA042FA
:10116000FAD3B0BD2DE9F04F82B041F20042C4F293
:1011700001020E680423904208BF0323002E00934F
:1011800000F0F68040F20C4E4FF6FF7CC4F2010EE8
:1011900000220124C1F2100C4FF0000A4FF00009A8
:1011A00043E000BF012502F00C040F27A7402BEA03
:1011B000070705FA04F43C4343F82640D1F804B08D
:1011C00040F20045C4F201055FEACB332B6854BFFF
:1011D00023EA080343EA08032B606B685FEA8B3459
:1011E00054BF23EA080343EA08036B605FEACB2499
:1011F000AB6854BF23EA080343EA08035FEA8B2481
:10120000AB60DEF800304FF0010454BF23EA08035E
:1012100043EA0803CEF800300E680AF1010A36FAF4
:101220000AF302F1040200F0A38004FA0AF816EAB5
:10123000080FF1D04B68634512DC122B56D8DFE85B
:1012400003F0350B4549555555555555555555558B
:101250005555554D510000BFD1F80C9046E000BFE8
:101260004FF6FF77C1F22107BB420FDC0027C1F226
:101270001107BB421AD00027C1F21207BB4215D09A
:101280000027C1F22107BB4210D02FE00027C1F296
:101290002207BB420AD00027C1F23107BB4205D06A
:1012A0000027C1F23207BB4220D100BF8B684BB18F
:1012B000012B14BFC0F81480C0F810804FF008094B
:1012C00014E000BF4FF0040910E000BFCB6803F149
:1012D00008090BE04FF0000908E000BFCB6803F1FC
:1012E000040903E0CB6803F10C0900BF134605466F
:1012F000BAF1080F24BF203B04352E680F279F400A
:10130000BE4309FA03F333432B60CB79DB067FF549
:1013100083AF41F21804C4F2020423684FEA9A062C
:1013200043F001032360236840F6000403F0010347
:101330000193019B40F20043C4F20103A3F57E73C5
:1013400053F826B0C4F20104A0420FD040F6004486
:10135000C4F20104A0423FF425AF41F20004C4F2FC
:101360000104009DA04208BF02251CE700251AE7E2
:1013700002B0BDE8F08F0000002A08BF0904016137
:101380007047000040F27C10C2F200000068704715
:1013900070B5B8B3044690F83D0028B9002084F831
:1013A0003C00204600F0CCFA242084F83D00206860
:1013B000016821F001010160016841F40041016010
:1013C000016821F40041016000F08AFD48F280418B
:1013D000C0F21E0140F60013D4F804E088424FF03A
:1013E0000001C0F23D0348F2A16C4FF0000238BF8B
:1013F00001219842C0F2010C38BF0122E64538BFF6
:101400000A460AB1012070BD4DF68361C4F21B315A
:10141000A0FB01122168950C4B684FF4967623F0DF
:101420003F0343EA9243754344F6D3564B60C1F2FF
:1014300062060B6AA5FB0656B50923F03F03E64595
:1014400038BF950C6A1C1A430A62CA6948F2A06642
:101450004CF6FF73C0F20106B64522EA03020BD830
:1014600001384FEA4E03B0FBF3F001306FF31F3049
:10147000042898BF04201EE0A368013863B1192333
:101480000EFB03F3B0FBF3F001306FF31F3078B1C4
:1014900000F5804008E000BF0EEB4E03B0FBF3F018
:1014A00001306FF31F3028B100F5004003E000BFAA
:1014B000012000E001201043C8610868D4E9072337
:1014C00020F0C000104318430860886848F2FF32DB
:1014D00004F10C0690434CCE18431043A569886074
:1014E000C86820F0FF0030432843C860086840F017
:1014F0000100086000202021206484F83D10206352
:1015000084F83E0070BD00002DE9F04F85B0044620
:1015100000201E4617460D460490FFF733FF94F84F
:101520003D10202923D1804620688169890719D57B
:10153000FFF728FFA0EB08001928F5D9002020218B
:10154000206384F83D1084F83E00206C04F13C09CF
:1015500040F0200020640220002189F8001005B02E
:10156000BDE8F08FA14619F83C1F012904D10220E3
:1015700005B0BDE8F08F00BF012289F800200368A4
:10158000DDE90F1A0E9ADB0703D1036843F001036C
:101590000360036823F400630360222084F83D00A5
:1015A000402084F83E000020206462626185608DE6
:1015B000294620850020CFF6FF70E06220463A469B
:1015C0003346CDF800A0CDF8048001F08FFD18B1AE
:1015D000012005B0BDE8F08F208D022810D0012831
:1015E00024D0002838D1002003902068416903915D
:1015F000816903910399016841F40071016037E04A
:101600002068016841F400610160EFF3108072B658
:101610000020039020684169039181690391039937
:10162000016821F48061016062B621E020680168F0
:1016300021F480610160EFF3108072B60020039006
:10164000206841690391816903910399016841F41C
:101650000071016062B60BE02068016841F48061AE
:10166000016000210391416903918069039003980F
:10167000208D002800F0238140F2180B4BF289578F
:101680000AF10105C2F2000BC1F2F847232680B22D
:10169000032819D8022845D001286FD1BAF1000FCC
:1016A00000F0FA802068014651F8142F520600F12C
:1016B000F7800868C00600F12F81FFF763FEA0EBFA
:1016C00008005045EED91CE1BAF1000F12D000BF5E
:1016D0002068014651F8142F520610D40868C0063D
:1016E00000F11A81FFF74EFEA0EB08005045EFD93C
:1016F00007E100BF20684169490640F1FB800069AD
:10170000616A0870606A2268411C208D616201383C
:101710002085638D013B638553695B0740F1CC8075
:101720001069BFE020684169490711D4002D00F01D
:101730009380BAF1000F00F0E280FFF723FEA0EBE8
:101740000800504500F2DD80206840694007F4D56C
:10175000EFF3108072B62068616A026842F400728A
:10176000026000690870606A218D01306062481E65
:101770002085608D0138608562B668E02068416927
:10178000490710D4002D77D0BAF1000F00F0B780D0
:10179000FFF7F8FDA0EB0800504500F2B28020688A
:1017A00041694907F4D5016821F480610160EFF3D4
:1017B000108072B62068616A00690870606A218DC5
:1017C0000130013960622185618D01396185DBF865
:1017D0000010C908A1FB0712110A71430491049972
:1017E000013904910499002976D021684A69520789
:1017F0001DD4049901390491049900296CD0216801
:101800004A69520713D404990139049104990029B3
:1018100062D021684A69520709D4049901390491B8
:101820000499002958D021684A695207D7D50A6817
:1018300042F400720A6009690170606A218D01300A
:101840006062481E2085608D0138608562B6206820
:10185000616A006926E000BF416949073FF578AF3A
:10186000416949075CBF41695FEA41713FF570AF6B
:1018700041694907F0D56BE74169490793D441694C
:1018800049075CBF41695FEA41713FF58CAF41692F
:101890004907F1D587E700BF20684169490629D586
:1018A0000069616A0870606A218D01306062481EBB
:1018B0002085618D0139618501047FF4E8AE202027
:1018C00084F83D00002084F83E00002189F80010D3
:1018D00005B0BDE8F08F00BF00202021206384F810
:1018E0003D1084F83E00206C40F02000206462B679
:1018F0001EE000BF50F8141FC90601460CD4FFF7C4
:1019000041FD00202021206384F83D1084F83E0032
:10191000206C40F020000AE06FF01000086000200A
:101920002021206384F83D1084F83E00206C206460
:101930000120002189F8001005B0BDE8F08F0000FB
:1019400010B586B0006845F20042C4F200020021E2
:101950009042049102D006B010BD00BF41F21804BD
:10196000C4F20204206802A940F008002060206848
:1019700000F00800019001984FF44070029012208E
:1019800003900320059040F60040C4F20100FFF7E9
:10199000E9FB0420C4F20100016841F0E06141F07C
:1019A00002010160606840F400106060606800F44B
:1019B00000100190019806B010BD000040F2100028
:1019C00040F27C11C2F20000C2F2000100780A6805
:1019D000104408607047000080B542F20000C4F275
:1019E0000200016841F010010160032000F08AF854
:1019F0000F2000F005F800F027F8002080BD00005F
:101A000070B540F21006C2F2000640F218013278BA
:101A1000C2F200014FF47A730968B3FBF2F2044694
:101A2000B1FBF2F1084600F05DFC0F2C4FF0010510
:101A300008D838B94FF0FF3021460022002500F0C9
:101A400035F87460284670BD82B041F21800C4F2C7
:101A500002000168022241F001010160016801F009
:101A6000010101910199416841F080514160406854
:101A700000F08050009000980420C4F2010001683A
:101A800062F31A61016002B070470000002848BF8D
:101A9000704700F01F01012202FA01F14EF200121C
:101AA0004009CEF2000242F82010704710B54EF601
:101AB0000C5CCEF2000CDCF80030C3F3022E8EF08A
:101AC0000704042C28BF0424BEF103034FF0FF3E9B
:101AD0000EFA04F438BF0023A14399400EFA03F331
:101AE0009A43114300F00F02043A624409010C3298
:101AF00000F16043B0F1FF3FC8BF03F564421170CD
:101B000010BD00004EF60C51CEF200010A684FF6EF
:101B1000FF031A4060F30A2242F0806040F0FD703B
:101B20000860704780B5012818D0022836D01028E8
:101B300032D141F20401C4F202010A6851F8040CE6
:101B4000C00129D5C2F383402DA3185CD2033DD434
:101B500040F60012C0F23D02504343E041F204005F
:101B6000C4F20200C16940F202320A40B2F5817F3C
:101B700004BF4FF4004080BD01F44071B1F5407FD7
:101B80001CD0B1F5007F07D1006A49F640418007BB
:101B900001EAE07080BD00BF002080BD00F0B4F914
:101BA00041F20401C4F2020109680222C1F3813149
:101BB00002EB4101B0FBF1F080BD00BF50F8040C16
:101BC0004FF22441800301EAE07080BD0A6810A34F
:101BD000C2F340429A5C41F20023C0F27A03B3FBA5
:101BE000F2F250430968490248BF80BD4AF6AB2172
:101BF0004000CAF6AA21A0FB0101480880BD00BF31
:101C000002030405060708090A0B0C0D0E0F10103D
:101C1000010200002DE9F04182B00446007841F253
:101C20001C06C007C4F202064AD0306810F0805883
:101C300008D1306840F080503060306800F080504B
:101C40000190019847F20007C4F200073868C00508
:101C500012D4386840F480703860FFF793FB054673
:101C60003868C00508D4FFF78DFB401B6428F7D9FE
:101C7000032002B0BDE8F081706810F4407012D00B
:101C8000616801F4407188420DD0706840F24042B2
:101C9000C4F24222012320F4407113600023C007E4
:101CA000136071602AD17068616820F44070084345
:101CB000B8F1000F706003D1306820F080503060C0
:101CC0002068810707D556F8181CA26821F4404106
:101CD000114346F8181CC00604D4002002B0BDE829
:101CE000F08100BF56F8180CE16820F4800008432A
:101CF00046F8180C002002B0BDE8F081FFF742FB67
:101D0000054641F2883700BF70688007CBD4FFF7E3
:101D100039FB401BB8424FF00300F5D9EBE7000058
:101D20002DE9F04381B0002800F0858042F20008E0
:101D3000C4F202080446D8F800000D4600F007007F
:101D400088420CD2D8F8000020F007002843C8F8D9
:101D50000000D8F8000000F00700A8426BD120680E
:101D600041F204098107C4F2020917D5410705D5DC
:101D7000D9F8001041F4E061C9F80010010705D559
:101D8000D9F8001041F46051C9F80010D9F80010DA
:101D9000A26821F0F0011143C9F80010C00741D139
:101DA000D8F8000000F00700A8420CD9D8F80000CD
:101DB00020F007002843C8F80000D8F8000000F021
:101DC0000700A84237D12068410707D5D9F800108D
:101DD000E26821F4E0611143C9F80010000708D55A
:101DE000D9F80000216920F4605040EAC100C9F828
:101DF0000000D9F8002002F00C00082841F2002071
:101E0000C0F27A0050D144F64A63C2F38341C0F66F
:101E10000003595CD2033BD440F60010C0F23D00F1
:101E2000484341E0606802280AD001282AD159F8C5
:101E3000041C890308D4012001B0BDE8F08300BF71
:101E400059F8041C8901F6D5D9F8001021F00301D6
:101E50000843C9F80000FFF795FA064641F28837B3
:101E6000D9F80000616800F00C00B0EB810F97D04A
:101E7000FFF788FA801BB842F2D9032001B0BDE811
:101E8000F08300BF59F8041C8907D4D5DCE700BFF4
:101E9000D9F8002044F63063C2F34042C0F6000394
:101EA0009A5C4843B0FBF2F0D9F8001044F6326275
:101EB000C1F30311C0F60002515C40F2180220FA8F
:101EC00001F140F21400C2F200000068C2F2000208
:101ED0001160FFF795FD002001B0BDE8F083000020
:101EE00040F2180041F20401C2F20000C4F2020103
:101EF0000068096844F64262C1F30221C0F600029C
:101F0000515CC8407047000040F2180041F20401E3
:101F1000C2F20000C4F202010068096844F642629D
:101F2000C1F3C221C0F60002515CC84070470000F6
:101F30002DE9F04182B0002868D00446007841F2D3
:101F40000006C007C4F2020625D0706800F00C003D
:101F500004281BD0706800F00C00082802D17068BB
:101F6000C00313D46068002800F06881B0F5A02F8A
:101F700000F07C81B0F5803F00F07C81306820F477
:101F800080303060306820F4802076E13068800353
:101F900001D56068D0B32078800718D5706810F03C
:101FA0000C0F07D0706800F00C0008286ED1706824
:101FB000C0036BD43068800702D52069012825D181
:101FC0003068616920F0F80040EAC1003060207894
:101FD00000071FD42078400732D4E56995B17068B6
:101FE00000F00C00082840F08F80012D0ED07068A2
:101FF000216A00F480328A4208D1616A00F47010CC
:10200000884203D1002002B0BDE8F081012002B077
:10201000BDE8F081A069002862D00020C4F242200F
:102020000121C0F88014FFF7ADF90546706A8007FA
:1020300000F18C80FFF7A6F9401B0228F6D92AE1AF
:10204000F06910F0805808D1F06940F08050F061DC
:10205000F06900F080500090009847F20007C4F249
:1020600000073868C00529D4386840F480703860AB
:10207000FFF788F9054600BF3868C0051ED4FFF792
:1020800081F9401B6428F7D905E100BF20690028C9
:1020900040F20000C4F2422000F082800121016081
:1020A000FFF770F9054600BF306880073FF588AF3D
:1020B000FFF768F9401B0228F6D9ECE0E068002839
:1020C00000F08080052800F09780012800F09880BB
:1020D000306A20F001003062306A20F0040092E0A3
:1020E0000020C4F242200021C0F88014FFF74AF912
:1020F000054600BF706A80077FF56CAFFFF742F9B5
:10210000401B0228F6D9C6E00027C4F2422700206F
:102110003866FFF737F9022D05460BD1306880018C
:1021200040F1BE80FFF72EF9401B02284FF003005C
:10213000F4D968E7306880017FF564AFFFF722F9D2
:10214000401B02284FF00300F4D95CE740F218006E
:10215000C2F20000006844F6D351C1F26201A0FB54
:102160000101480A019000BF00BF0198411E0028EC
:1021700001913FF42FAF00BF0198411E002801914B
:102180003FF428AF00BF0198411E002801913FF4A1
:1021900021AF00BF0198411E00280191E4D119E749
:1021A00000210160FFF7EEF8054600BF30688007A8
:1021B0007FF50DAFFFF7E6F8401B02284FF0030054
:1021C000F4D920E7306A20F001003062306A20F054
:1021D00004003062FFF7D6F8054641F2883700BFA9
:1021E000306A800720D5FFF7CDF8401BB8424FF08A
:1021F0000300F5D907E700BF306A40F00400306201
:10220000306A40F001003062FFF7BCF8054641F249
:10221000883700BF306A800706D4FFF7B3F8401B49
:10222000B842F7D937E000BFB8F1000F7FF4D5AE60
:10223000F06920F08050F061CFE600BF306820F4F4
:1022400080303060306820F480203060FFF79AF8EA
:10225000054600BF306880037FF59DAEFFF792F81A
:10226000401B64284FF00300F4D9CCE6306840F4FA
:1022700080203060306840F480303060FFF782F8B2
:10228000054600BF306880033FF585AEFFF77AF85A
:10229000401B6428F6D9032002B0BDE8F08100BFDE
:1022A000206AB0F5803F05D17168A26821F4003141
:1022B000114371607168626A21F47411104308431C
:1022C000706001203866FFF75DF8044630688001D1
:1022D0003FF598AEFFF756F8001B02284FF00300B9
:1022E000F4D990E6411E0020B0EB116F1CBF012015
:1022F00070474EF21002CEF2000251604EF62351AA
:10230000CEF20001F0230B7007219060116070473E
:10231000B0B590F83C20012A04BF0220B0BD01F105
:1023200008053CCDD1E900CE23F47C5322F4705251
:102330001A432EF4F0431A432CF4E0431A4324F4D6
:10234000C0431A432A43C96922F4804203681143F7
:102350005964002180F83C100846B0BD10B590F8D3
:102360003C20012A4FF0020233D080F83D20026861
:10237000D2F804E0D2F808C00C682EF070032343B2
:1023800040F2FF74C4F20004A24253600ADCB2F1CE
:10239000804F13D040F20043C4F200039A420DD0A4
:1023A00011E000BF42F60043C4F201039A4205D097
:1023B00040F60003C4F200039A4204D149682CF0AD
:1023C0008003194391600121002280F83D1080F8BC
:1023D0003C20104610BD0000002804BF01207047BB
:1023E00010B5044690F83D0028B9002084F83C0060
:1023F000204600F067F8022084F83D00206840F293
:10240000FF730268C4F2000342F6004C9842C4F223
:10241000010C15DCB0F1804F1AD040F20041C4F23B
:102420000001884214D0984218DCB0F1804F1DD0D2
:1024300040F20041C4F20001884217D01AE000BF08
:10244000604505D040F60001C4F200018842EAD19F
:10245000A16822F070020A439842E6DD604505D08B
:1024600040F60001C4F20001884203D1216922F440
:1024700040720A43A36922F08001D4F804E0E268C4
:10248000194360450160C262C0F828E002D1616969
:10249000CCF8301001214161002084F8461084F806
:1024A0003E1084F83F1084F8401084F8411084F8FE
:1024B000421084F8431084F8441084F8451084F8DE
:1024C0003D1010BD81B0006842F60041C4F2010128
:1024D000884201D001B0704741F21800C4F20200F6
:1024E000016841F400610160006800F40060009040
:1024F000009801B07047000090F83D1001291CBF02
:1025000001207047022180F83D10006840F2FF7200
:10251000C168C4F20002904241F00101C16009DCCF
:10252000B0F1804F12D040F20041C4F20001884265
:102530000CD012E042F60041C4F20101884205D0FD
:1025400040F60001C4F20001884206D1816801F022
:102550000701062904BF00207047016841F001010E
:10256000016000207047000080B590F83C20012AEF
:102570004FF0020200F0BF8080F83D20D0F800C08C
:102580004FF67772DCF8083023EA0202CCF8082014
:102590000B683F2B1CDD5F2B20DD602B50D0B3F58B
:1025A000005F6DD0702B40F0A080D1E901E3C968D5
:1025B000DCF8082043EA0E0322F47F4243EA0121BB
:1025C0001143CCF80810DCF8081041F077018AE0DC
:1025D0001F2B29DC63B3102B2AD086E0402B63D05D
:1025E000502B40F08280D1F804E0C968DCF820303C
:1025F000DCF8202022F00102CCF82020DCF81820A2
:1026000022F0F00242EA011123F00A0242EA0E022D
:10261000CCF81810CCF82020DCF8081041F0570155
:1026200021F020015FE000BF202B01D0302B5CD1D6
:10263000DCF8081021F07001194341F0070152E065
:10264000D1F804E0C968DCF8203023F01003CCF89E
:102650002030DCF81830DCF8202023F4704322F01E
:10266000A00243EA013142EA0E12CCF81810CCF86D
:102670002020DCF8081041F0670121F0100132E061
:10268000D1E901E3C968DCF8082043EA0E0322F42B
:102690007F4243EA01211143CCF80810DCF808100E
:1026A00041F480411FE000BFD1F804E0C968DCF8C4
:1026B0002030DCF8202022F00102CCF82020DCF8C9
:1026C000182022F0F00242EA011123F00A0242EA45
:1026D0000E02CCF81810CCF82020DCF8081041F0DD
:1026E000470121F03001CCF808100121002280F8C8
:1026F0003D1080F83C20104680BD00002DE9F043DD
:1027000090F83C30012B04BF0220BDE8F0834FEA73
:10271000B202032A00F2E580DFE802F0023A76B066
:10272000036842F600461A6AC4F2010622F001026A
:102730001A621D6A1A465C6852F818CFB3428E6856
:10274000D1F800E025F0020545EA06050CD1CE6877
:10275000D1E9057824F4407425F00C0526F0040630
:102760003C43354344EA08042CF0730747EA0E075C
:102770005C609F614F6809695F631D629F6947F0F4
:1027800008079F619F6927F004079F61A6E000BFCB
:10279000036842F600461A6AC4F2010622F01002EB
:1027A0001A621D6A1A46D3F804C052F8184FB34291
:1027B0008E68D1F800E025F0200545EA06150FD116
:1027C000CE68D1E905986FF0400707EA06162CF4A9
:1027D000406725F0C00547EA8907354347EA880C7A
:1027E00024F4E64444EA0E27C3F804C09F614F680E
:1027F00009699F631D629F6947F400679F619F6934
:1028000027F480679F6168E0036842F600461A6A11
:10281000C4F2010622F480721A621D6A1A46D3F8C5
:1028200004C052F81CEFB3428E680C6825F40075A2
:1028300045EA06250FD1CE68D1E90598360240F267
:10284000FF47BE432CF4405725F4406547EA09177B
:10285000354347EA081C2EF073072743C3F804C02A
:10286000DF614F680969DF631D62DF6947F00807B0
:10287000DF61DF6927F00407DF612FE0036842F6BC
:1028800000471A6AC4F2010722F480521A621A46FB
:10289000D3F820C05D6852F81C4FD1F800E08E6874
:1028A000BB4204D14F6925F4804545EA87152CF4D5
:1028B000005747EA063724F4E64646EA0E265D60EE
:1028C000DE614E6809691E641F62DF6947F40067B4
:1028D000DF61DF6927F48067DF610902136819434C
:1028E0001160002180F83C100846BDE8F08300002C
:1028F000002804BF0120704710B5044690F83D0041
:1029000028B9002084F83C00204600F067F8022037
:1029100084F83D00206840F2FF730268C4F20003AF
:1029200042F6004C9842C4F2010C15DCB0F1804F25
:102930001AD040F20041C4F20001884214D09842FB
:1029400018DCB0F1804F1DD040F20041C4F200010C
:10295000884217D01AE000BF604505D040F600015C
:10296000C4F200018842EAD1A16822F070020A4351
:102970009842E6DD604505D040F60001C4F2000152
:10298000884203D1216922F440720A43A36922F0EC
:102990008001D4F804E0E268194360450160C26236
:1029A000C0F828E002D16169CCF830100121416102
:1029B000002084F8461084F83E1084F83F1084F814
:1029C000401084F8411084F8421084F8431084F8D1
:1029D000441084F8451084F83D1010BD7047000085
:1029E00041B1082910D0042914BF00F1410200F1BF
:1029F0003F020BE090F83E20012A1CBF01207047E7
:102A0000022280F83E2013E000F140021278012AF1
:102A10001CBF012070470222082907D0042914BFD7
:102A200080F8412080F83F2002E000BF80F840207D
:102A3000006801F01F010122036A8A4023EA0201B3
:102A40000162036A42F64441C4F201011A43A1F152
:102A50004403984202620FD040F2FF71C4F20001B9
:102A6000884213DCB0F1804F1CD040F20041C4F228
:102A70000001884216D01CE00A6842F400420A6055
:102A800040F2FF71C4F200018842EBDD42F60041E2
:102A9000C4F20101884205D040F60001C4F20001F1
:102AA000884206D1816801F00701062904BF002091
:102AB0007047016841F0010101600020704700008B
:102AC0007047000070470000B0B582B0026805464C
:102AD0001068D368546900F02F01202903F0200109
:102AE00006D129B1284602B0BDE8B04001F086B950
:102AF0005FEA007C1EBF04F0010E03F4907414EB37
:102B00000E0455D1296B012905D110F0100118BF11
:102B100013F0100136D1010622D513F080011FD029
:102B200095F83D00212841D1A868B0F5805F03D118
:102B30002869002800F0F680286A411C2962007884
:102B40005060E88C01380104E8842FD1D06820F06F
:102B50008000D060D06840F04000D06002B0B0BDCE
:102B6000400623D513F0400020D0D068202120F06B
:102B70004000D060284685F83D1002B0BDE8B04066
:102B800000F0B0BA002001901068019050680190E8
:102B900001985069400613D4A88DE98DEB8D002B68
:102BA0001CBF401A5FEA004140F0A48002B0B0BDF3
:102BB000C40718BF13F480732CD1430730D436E018
:102BC000A86B01684B689CB2002CEFD0A98D8C4299
:102BD000ECD2EB858369202B17D0D16821F480716A
:102BE000D160516921F001015161516921F0400129
:102BF0005161202185F83E1000212963D16821F020
:102C00001001D160FEF720FAA98DE88D081A81B273
:102C1000284682E02B6C43F001032B64430706D562
:102C2000BEF1000F03D02B6C43F002032B6483072B
:102C300006D5BEF1000F03D02B6C43F004032B64C8
:102C4000BCF1000F06D551EA0E0303D02B6C43F004
:102C500008032B642B6C002BA8D010F0200018BFA9
:102C6000002903D0284601F0C9F82A685069296C68
:102C700000F0400001F0080140182DD0D06820F489
:102C80009070D060506920F001005061286B0128DD
:102C900003D1D06820F01000D060202085F83E00DD
:102CA00000202863506940061ED5506920F040007E
:102CB0005061A86BC0B143F6F151C0F60001416309
:102CC000FEF7E6F900283FF471AFA86B416B02B044
:102CD000BDE8B040084700BF2846FFF7F3FE0020DC
:102CE000286402B0B0BD00BF284602B0BDE8B040C5
:102CF000FFF7E8BED16821F49071D160516921F0ED
:102D000001015161202185F83E1000212963D1681D
:102D100021F0100381B22846D36002B0BDE8B04074
:102D2000FFF7CEBE286A30F8021B6FF35F215160B7
:102D3000286206E7002804BF0120704710B504464A
:102D400090F83D0028B9002084F83C00204600F0AF
:102D50005FF8242084F83D002068D4E90212C3689B
:102D600023F40053C360036923F440531A43026100
:102D7000D4E904231143C268194341F20C639A4316
:102D80001143C1604169A26921F44071114343F6C6
:102D90000002C4F201029042416103D0FFF7A0F8A3
:102DA00002E000BFFFF7B0F86268192148439100C4
:102DB000B0FBF1F048F21F51C5F2EB11A0FB01236B
:102DC0005A096FF0630302FB0300322303EB001088
:102DD000A0FB0101F02303EA5113206803EB021268
:102DE000C1F3431111448160016921F490410161F3
:102DF000416921F02A014161C16841F40051C1607B
:102E000000202021206484F83D1084F83E1010BD7D
:102E100070B586B040F60044C4F201040068A4F521
:102E2000444100268842049602D006B070BD00BF1F
:102E300041F21800C4F20200416802AD41F4802161
:102E40004160416801F4802101910199016841F0DC
:102E5000080101600068294600F00800019001980F
:102E60004FF48060029002200390032005902046DA
:102E7000FEF778F94FF40060CDE9020620462946B6
:102E80000496FEF76FF9272000210022FEF70EFEC0
:102E90002720FEF7FBFD06B070BD0000034690F84A
:102EA0003E0020280AD100294FF0010018BF002A57
:102EB00000D1704793F83C00012801D102207047EF
:102EC00000201863996222219A85DA85186483F8B4
:102ED0003E10196883F83C00CA6842F48072CA60E8
:102EE0004A6942F001024A61CA6842F02002CA609F
:102EF00070470000B0B582B0006843F60001C4F22C
:102F00000101884202D002B0B0BD00BF40F23814C7
:102F1000C2F200040DF107052046294601224FF6B2
:102F2000FF7300F007F8204629460122FFF7B6FF9D
:102F300002B0B0BD2DE9F04381B0044690F83D00E9
:102F400020280DD10F4600294FF0010000F092809B
:102F50001646002A00F08E8094F83C00012803D128
:102F6000022001B0BDE8F083012084F83C004FF05E
:102F7000000921201D46C4F8409084F83D00FEF76A
:102F800001FAA684E684A1688046B1F5805F25D168
:102F9000206900281CBF38464F463E46074684F845
:102FA0003C90E08C00B3681C20D0002D66D12068D6
:102FB0000BE000BF36F8021B00276FF35F21416072
:102FC000E18C0139E184E18C81B30168090675D592
:102FD000002FEFD017F8011BF1E700BF002684F89F
:102FE0003C90E08C0028DED120681FE0206802E0E1
:102FF0000168090609D40168090606D401680906B2
:103000005CBF01685FEA0161F2D51FB117F8011BCF
:1030100005E000BF36F8021B00276FF35F21416017
:10302000E18C0139E184E18C0029E4D10168490691
:103030001CD4002D42D0691C0ED10168490615D45C
:10304000016849065CBF01685FEA41610ED401680E
:103050004906F2D50AE000BFFEF794F9A0EB08019B
:103060002068A9422AD800684006F5D5202084F8B7
:103070003D00002001B0BDE8F08300BF206800BF24
:103080000168090608D4FEF77DF9A0EB0801206865
:10309000A942F5D912E000BF17B117F8011B04E0EF
:1030A00036F8021B00276FF35F214160E18C013984
:1030B000E184E18C0029E3D1B8E700BFC16821F4C5
:1030C000D071C160416921F001014161202084F883
:1030D0003D0084F83E00002084F83C00032001B04D
:1030E000BDE8F08370470000FEE700002DE9F043E3
:1030F00083B00446006899460368904643F48062B2
:10310000026002680B9D42F48072026042690A9E6E
:10311000D2070F461DD1711C11D0002E00F0368150
:10312000FEF730F9401BB04200F23281206841695D
:10313000C907F5D00DE000BF4169C90709D1416950
:10314000C90706D14169C90704BF41695FEAC17176
:10315000F2D007F0FE0707614169890738D4416959
:10316000721C01F4806111D049BB002E00F03A813D
:10317000FEF708F9401BB04200F236812068416931
:10318000890725D441694905F2D518E0B9B94169E3
:1031900089071DD44169490511D44169890717D4AC
:1031A000416949050BD44169890711D44169490531
:1031B00005D4416989070BD441694905E7D5016800
:1031C00041F4007101606FF48061416104200CE101
:1031D00000210291014651F8142F02924A6802928E
:1031E000029A0A68120620D4002E00F0AB80721CEE
:1031F00051D10A68520500F1AD800A68120614D454
:103200000A68520500F1A6800A6812060DD40A6801
:10321000520500F19F800A68120606D40A6852051A
:1032200000F198800A681206E3D5B9F1010F45D084
:103230004FEA18210161014651F8142F12063DD4BE
:10324000002E00F07F80721C2AD10A68520500F11E
:1032500081800A68120631D40A6852057AD40A6855
:1032600012062BD40A68520574D40A68120625D4B3
:103270000A6852056ED40A681206E6D51EE000BF41
:10328000FEF780F8401BB04261D82068014651F833
:10329000142F1206C9D408684005F1D55AE000BFC2
:1032A0000868400556D4FEF76DF8401BB0424ED872
:1032B0002068014651F8142F1206F1D55FFA88F103
:1032C0000161014651F8142F12061AD4D6B3721CAC
:1032D00033D10A6852053DD40A68120611D40A682F
:1032E000520537D40A6812060BD40A68520531D445
:1032F0000A68120605D40A6852052BD40A68120619
:10330000E7D50168002241F48071016020464FF04A
:1033100001113346009500F079F8002850D020685C
:10332000006844E0FEF72EF8401BB0420FD820683A
:10333000014651F8142F1206E3D408684005F1D570
:1033400008E000BF0868400504D4FEF71BF8202001
:1033500004E000BF6FF48060086004200021202298
:10336000216384F83D2084F83E10226C10432064D1
:1033700084F83C10206C042843D12068016841F493
:1033800000710160012003B0BDE8F083FDF7FAFF92
:1033900000202021206384F83D1084F83E00216C39
:1033A00041F020012164216884F83C000868C005D0
:1033B00044BF4FF400702064032003B0BDE8F083E5
:1033C000206847F0010101610221C0F2010120469D
:1033D00032462B4600F0C2F8002818BF012003B087
:1033E000BDE8F083FDF7CEFF2020002120222163DD
:1033F00084F83D2084F83E10226C1043206484F849
:103400003C10012003B0BDE8F08300002DE9F0413D
:1034100005461446DDF8188001F47F002A681E4630
:10342000B0F5803F8FB241D150693840C01BB0FA2F
:1034300080F04009A0427BD1701C2DD0002E7BD0A3
:10344000FDF7A0FFA0EB0800B04277D828684069DC
:103450003840C01BB0FA80F04009A042F0D00020F4
:10346000BDE8F08150693840C01BB0FA80F04009D7
:10347000A0425DD150693840C01BB0FA80F04009CD
:10348000A04255D150693840C01BB0FA80F04009C5
:10349000A0424FF000005FD150693840C01BB0FA25
:1034A00080F04009A042DDD042E000BF9069384082
:1034B000C01BB0FA80F04009A04239D1701C1FD067
:1034C000D6B300BFFDF75EFFA0EB0800B04235D8D1
:1034D000286880693840C01BB0FA80F04009A042DB
:1034E000F0D00020BDE8F08190693840C01BB0FAF0
:1034F00080F04009A0424FF0000018BFBDE8F08105
:1035000090693840C01BB0FA80F04009A0420FD14A
:1035100090693840C01BB0FA80F04009A04207D142
:1035200090693840C01BB0FA80F04009A042DBD05F
:103530000020BDE8F08100BFFDF724FF002020211E
:10354000286385F83D1085F83E00296C41F0200184
:10355000296485F83C000120BDE8F081F0B581B018
:10356000044600681D4643698FB203EA0701B94269
:1035700002D1002001B0F0BD41691646013201F4CC
:1035800080610FD059BB9EB3FDF7FCFE401BB042DB
:1035900030D8206841693940B942EAD041694905CB
:1035A000F2D51CE0D9B941693940B942E1D041694D
:1035B000490514D441693940B942DAD04169490515
:1035C0000DD441693940B942D3D04169490506D487
:1035D00041693940B942CCD041694905E3D5016818
:1035E00041F4007101606FF480614161042002E0E8
:1035F000FDF7C8FE202000212022216384F83D2011
:1036000084F83E10226C1043206484F83C100120A2
:1036100001B0F0BD84B04CF6E432C4F296024FF033
:103620007E50002100F054FD4FF4FA60FDF786FD56
:1036300040F20401C2F20001D1E900014843FCF765
:10364000D5FF044600F03EFC40F2280AC2F2000A10
:10365000DAF8005001462046FCF7BCFD2946FCF78D
:10366000B3FDFDF709F84DF64A0B42F2FB17C4F61D
:10367000125BC4F219075A463B4601F0A9FAFDF75E
:103680000EF800210446FCF75FFF05462046FCF7D4
:10369000F3FF5A463B46FCF7CFFDFDF700F8002D3F
:1036A00008BF2046CAF8000049E000BF0026C3F664
:1036B000F8762846214600223346FCF77CFF42F28A
:1036C000FB17C4F2190700281CBF00253446284602
:1036D0002146FCF7E4FF40F20401C2F20001096850
:1036E000054603984843FCF781FF044600F0EAFBD7
:1036F000DAF8006001462046FCF76CFD3146FCF725
:1037000063FDFCF7B9FF5A463B4601F061FAFCF74E
:10371000C6FF00210446FCF717FF06462046FCF7CB
:10372000ABFF5A463B46FCF787FDFCF7B8FF002E7F
:1037300018BF044640462946224600F0C9FC00F066
:10374000EBFB40F26C01C2F200010968CAF83800D4
:10375000C86BAAF81C000C6C80B2A0F22670AAF804
:103760001E40FCF74CFF4CF6A77549F6AE06CBF6AB
:103770000E05CBF631762A463346FCF704FEFCF7FD
:103780008EFF8046A0B2A0F22670FCF738FF2A46D2
:103790003346FCF7F8FDFCF782FF40F20409C2F261
:1037A0000009D9E90012054601FB02F0FCF71EFFF3
:1037B000044600F087FBDAF8006001462046FCF77B
:1037C00009FD3146FCF700FDFCF756FF5A463B4623
:1037D00001F0FEF9FCF763FF00210646FCF7B4FE9A
:1037E0003C4607463046FCF747FF5A462346FCF75F
:1037F00023FDFCF754FF044628462946002F08BF46
:103800003446CAF80480FCF78DFC4146FCF78AFC7C
:10381000FCF732FF43F21C3247F6A713C4F2905272
:10382000C3F6E273FCF7AFFDFCF739FFCAF80800F6
:103830002046FCF721FF05460E4601F013FAFCF77F
:103840002EFFC84681462846314601F05FF9FCF755
:1038500026FF0746DAE90165DAF82C00DAF838B015
:10386000019028464946FCF7B5FC044630463946E7
:10387000FCF7B0FC2146FCF755FC0290CAF80C009E
:1038800048463146FCF7A6FC044628463946FCF774
:10389000A1FC2146FCF798FC0746D8E90104CAF8C8
:1038A00010700390FCF7A2FE59464DF64A0BC4F681
:1038B000125BFCF78FFC2146FCF786FC0021C4F26A
:1038C0003431FCF787FCFCF7D7FE42F2FB135A4673
:1038D000CCF20903FCF7C9FDFCF7E1FE0446CAF887
:1038E000240001982146FCF71DFC0021C4F2C821E8
:1038F0000546FCF737FE002100281CBF0025C4F256
:10390000C8252846CCF2C82101F04EF944F65211E0
:10391000C3F69D11CAF82C00FCF75CFC4CF28F2119
:1039200005462046C3F67541FCF754FC2946FCF7D2
:10393000F9FB0646FCF7A0FE0C4600210546304682
:10394000CBF6C071FCF700FE20B10024CBF6F87472
:1039500000200BE030464FF07F51FCF703FE0028BB
:103960000FBF284600200024C3F6F8742146FCF758
:1039700096FE3946CAF83C00FCF726FCDAF8281017
:103980000446CAF82000FCF7CDFB0021C4F27011F8
:103990000546FCF7E7FD002100281CBF0025C4F206
:1039A00070152846CCF2701101F0FEF845F6294159
:1039B000C3F68F51CAF82800FCF70CFC46F266618A
:1039C00005462046C3F6E671FCF704FC2946FCF7E1
:1039D000A9FB0646FCF750FE0D4600210446304682
:1039E000CBF6C071FCF7B0FD30B140F20009CBF668
:1039F000F87900244D460EE030464FF07F51FCF739
:103A0000B1FD40F20009CBF6F87900281EBF002472
:103A10000025C3F6F87520462946FCF740FE029DB6
:103A20008046CAF8400085F00041DAF83400CAF850
:103A300030102946FCF7C8FB0021C4F220110446CF
:103A4000FCF790FD002100281CBF0024C4F22014C4
:103A50002046CCF2201101F0A7F80446CAF8340041
:103A60002846FCF709FE054620460F46FCF704FEF3
:103A70004EF679124AF60843C3F22612C3F67C7357
:103A8000FCF781FC4CF6CD424CF6CC4304460E4686
:103A900028463946CCF6CC42CBF6FC73FCF773FCD7
:103AA00002460B4620463146FCF7C6FB00224B4639
:103AB00005460C46FCF764FD00283FF4F7AD42F2E2
:103AC000FB1700254C46C4F2190700E6B0B588B0D4
:103AD00040F26C0042F200410024C2F20000C4F245
:103AE00001014FF4807201254FF4602306940573A1
:103AF0000475C361C0E9001482600561FDF7C4F973
:103B0000002818BFFCF7BEFF4FF48050079040F22A
:103B10006C00CDE901550225C2F2000001A905950E
:103B20000395ADF818400494FDF73CF8002818BF41
:103B3000FCF7A8FF40F26C00C2F2000001A9CDE939
:103B40000155FDF72FF8002818BFFCF79BFF08B0C0
:103B5000B0BD000070B584B041F21800C4F202009C
:103B6000016840F6004441F0200101600168C4F2A0
:103B7000010401F02001009100990168002241F048
:103B80000401016001684FF4004501F00401009157
:103B900000990168002641F00801016000684FF4B7
:103BA000004100F00800009000982046FDF7E4FB7B
:103BB0000120CDE9010602200390694620460095C8
:103BC000FDF7D0FA04B070BD80B540F29C0045F21C
:103BD0000041C2F20000C4F2000148F2A0620023DA
:103BE0004FF4804CC0F2010280E80E00C0E9033CB3
:103BF000C0E90533C0E90733FDF7CAFB002808BF59
:103C000080BDBDE88040FCF73DBF000070B59CB0B2
:103C100042F6004540F2F000C4F201050021C2F274
:103C200000000B222023F92680241691CDE91411DF
:103C30001191CDE90F11CDE90D11CDE90B11CDE9B0
:103C40000911CDE90711CDE90511CDE90311CDE940
:103C50000111C0E90052C0E90236C0E904118461D3
:103C6000FEF7BAFB002818BFFCF70CFF4FF480509A
:103C7000139040F2F000C2F2000013A9FEF774FCAA
:103C8000002818BFFCF7FEFE40F2F000C2F2000070
:103C9000FEF72EFE002818BFFCF7F4FE202010903F
:103CA00040F2F0000024C2F2000010A91194FEF7C7
:103CB00055FB002818BFFCF7E5FE6020CDE909049C
:103CC00040F2F000C2F2000009A90022CDE90B4445
:103CD000CDE90D440F94FEF711FD002818BFFCF745
:103CE000D1FE40F2F000C2F2000009A90422FEF762
:103CF00005FD002818BFFCF7C5FE40F2F000C2F237
:103D0000000009A90822FEF7F9FC002818BFFCF7FB
:103D1000B9FE02200B9040F2F000C2F2000009A9A7
:103D20000C22FEF7EBFC002818BFFCF7ABFE40F2BC
:103D3000F0044FF40050C2F200040026069001A9DE
:103D400020460596CDE90366CDE901660896FEF7A3
:103D5000DFFA002818BFFCF795FE20681A96A842E3
:103D600002D01CB070BD00BF41F21800C4F20200C6
:103D7000016841F004010160006818A900F0040026
:103D8000179017984FF4E0601890022019901B903C
:103D9000A5F51050FDF7E6F91CB070BD80B540F2F6
:103DA000381044F60001C2F20000C4F20001002302
:103DB0004FF00C0C4FF4E13280E80E00C0E9033301
:103DC000C0E905C3C361FEF7B5FF002808BF80BD89
:103DD000BDE88040FCF756BEFEE70000FEE70000AD
:103DE0007047000070470000FDF7E8BD7047000015
:103DF000406A0021C185C184FEF764BE81B090F89D
:103E00003E10222920D18368B3F5805F08D1016973
:103E1000002941D000F128010A6803685B680AE0C4
:103E2000014651F8282F13B90369002BF5D0036818
:103E30005B6803F07F0313700A6801320A60C18D6A
:103E400001390A04C18501D001B070470168CA6810
:103E500022F02002CA60CA6822F48072CA604A69ED
:103E600022F001024A61202280F83E20026B012AE2
:103E70001CD100220263CB6823F01003CB600B68D7
:103E8000DB0605D500920A68009249680091009906
:103E9000818D01B0FEF714BE0168826A49686FF334
:103EA0005F2122F8021B8262C9E700BF01B0FFF761
:103EB00021B8000040F23810C2F20000FEF704BE44
:103EC000FEE7000080B584B00020ADF80E000220AF
:103ED0000DF10E01CDE9001040F29C004FF0640C92
:103EE000C2F200006C210C220123CDF808C0FDF7BE
:103EF0000BFBBDF80E00000400BAFCF777FB4FF097
:103F00006651FCF767F940F6DB71C4F2C901FCF7B2
:103F100061F904B080BD0000F0B585B00020ADF8B7
:103F20001200642002210DF11202029040F29C0066
:103F3000CDE90021C2F200006C210C2201230126F0
:103F4000FDF7E2FABDF81200000400BAFCF74EFBE0
:103F50004FF06651FCF73EF940F6DB71C4F2C9013F
:103F6000FCF738F940F22007C2F20007396804462E
:103F7000FCF72AF94DF67C11054620F00040C4F20A
:103F8000A001FCF7EFFA58B128460021FCF7EAFA45
:103F9000002818BF4FF0FF3678683044786000E0A2
:103FA00078683C60FCF722FB40F6DB71C4F2C90183
:103FB000FCF710F92146FCF7B5F805B0F0BD00009C
:103FC00094B0FDF709FD00240120CDE90F44CDE9AF
:103FD0000D440A900E904FF4E0104FF4803102250A
:103FE00013900AA80494CDE90244CDE90B14CDE95D
:103FF0001151FDF79DFF28B1EFF3108072B600BF9D
:10400000FEE700BF0F20CDE905054FF48060CDE944
:10401000080405A802210794FDF782FE20B1EFF302
:10402000108072B6FEE700BF022001904FF40040FE
:10403000039001A8FDF7EEFD20B1EFF3108072B6FA
:10404000FEE700BFFFF786FDFFF7BEFDFFF7DEFDD1
:10405000FFF73CFDFFF7A2FE40F2F004C2F20004BD
:1040600020460021FEF7BCFC206841F288354563FC
:1040700020460421FEF7B4FC206808218563204611
:10408000FEF7AEFC20680C21C5632046FEF7A8FCB5
:1040900042F64040C4F20100DC2101602046FEF7F8
:1040A0002BFA40F26C04C2F200042046FCF7F0FC4C
:1040B0002046FCF791FE40F60040C4F201004FF4A8
:1040C00000410122FDF758F9FFF7A4FAFCE70000D0
:1040D0002DE9F04F81B0804610460D46FCF7CCFA32
:1040E00007460C4600F0BEFDFCF7D9FA06463846F6
:1040F000214600F00BFDFCF7D2FA29460446FCF7F6
:1041000069F8074640463146FCF764F801463846F0
:10411000FCF75AF8074630462946FCF75BF8054697
:1041200040462146FCF756F82946FBF7FBFF0646BA
:104130003846FCF7A1FA074630460C46FCF79CFAD5
:1041400049F2BC6BC0F6907B4BF27A6380468A469C
:10415000C3F6FB73384621465A46FCF714F942462B
:104160005346FCF70AF940F20009C3F6E079002251
:104170004B46FCF708F9FCF792FA4BF27A630546D6
:10418000CBF6FB73384621465A46AB46FCF7FBF8A4
:10419000424653464546CDF800A0FCF7EEF8002213
:1041A0004B46FCF7F0F8FCF77AFA07463046002158
:1041B000FCF7D8F90446002858464FF0000118BF14
:1041C0000124FCF7CFF9002838464FF0000118BF52
:1041D0000234FCF7C7F90028A5A018BF0434005D1D
:1041E00006280DD8DFE810F008001000400072002B
:1041F000A400D600080100BF7D217D277D222AE191
:104200000022002727E100BF5846FCF735FA43F2A9
:10421000343441F23308C3F23334C4F27B0822460B
:104220004346FCF7B0F80026C4F2280600223346C5
:10423000FCF71BF9FCF701FA0099074628462246CD
:104240004346FCF7A0F800223346FCF70EF9FCF7D2
:10425000F4F93A18C2F1FA0101EBD173591043F3A2
:104260004F031A441F18F6E05846FCF705FA43F2CC
:10427000343841F23305C3F23338CCF27B05424681
:104280002B46FCF780F80026C4F2280600223346AD
:10429000FCF7EBF8FCF7D1F904463846FCF7ECF9EB
:1042A00042462B46FCF76FF800223346FCF7DDF858
:1042B000FCF7C3F92318C3F1FA0101EBD17242F301
:1042C0004F0751103A181F44C5E000BF43F234387D
:1042D00041F23309C3F23338C4F27B09009928460E
:1042E00042464B46FCF74FF80026C4F2280600224F
:1042F0003346FCF7BAF8FCF7A0F904463846FCF759
:10430000BBF942464B46FCF73EF800223346FCF729
:10431000ACF8FCF792F90119C1F1FA0202EBD27381
:1043200043F34F075A100F4400EB630193E000BFC3
:1043300043F2343441F23308C3F23334CCF27B0815
:104340000099284622464346FCF71DF80026C4F291
:10435000280600223346FCF788F8FCF76EF907467A
:104360005846FCF789F922464346FCF70CF8002230
:104370003346FCF77AF8FCF760F9C119C1F1FA028B
:1043800002EBD27343F34F075A10074401EB63016A
:1043900061E000BF3846FCF76FF943F2343441F274
:1043A0003305C3F23334C4F27B0522462B46FBF7B8
:1043B000EAFF0026C4F2280600223346FCF755F82F
:1043C000FCF73BF907465846FCF756F922462B46C0
:1043D000FBF7D9FF00223346FCF747F8FCF72DF92D
:1043E0003918C1F1FA0202EBD27343F34F025F10A6
:1043F000024401EB63012EE03846FCF73DF943F23D
:10440000343441F23308C3F23334CCF27B08224611
:104410004346FBF7B8FF0026C4F2280600223346C5
:10442000FCF723F8FCF709F90099074628462246CD
:104430004346FBF7A8FF00223346FCF716F8FCF7CB
:10444000FCF83918C1F1FA0202EBD2735F1001EBEC
:10445000630200EB630190B242F63442C4F20102FF
:104460001060B8B2506088B2906001B0BDE8F08FC3
:104470000002060104030500490050EAC12018BFEC
:1044800004204A0D18BF40F0010040F2FF72B2EB69
:10449000515F08BF40F00200012808BF05207047A7
:1044A0002DE9F74F144694B00021C4E90211159983
:1044B000079121F00045C9498D4206DC1599C4E9F0
:1044C000000117B00020BDE8F08FC549DFF814A344
:1044D000A9423CDD0799C44E0029C44FC44A15992E
:1044E000534619DDFBF749FF554506D0C14AC24B7B
:1044F000FBF743FFC4E900010AE04FF0D352BE4B83
:10450000FBF73BFF32463B46FBF737FFC4E90001B0
:1045100017B00120BDE8F08FFBF78EFE554506D0A1
:10452000B44AB54BFBF788FEC4E900010AE04FF03E
:10453000D352B14BFBF780FE32463B46FBF77CFE85
:10454000C4E9000117B04FF0FF30BDE8F08FAB4970
:10455000A942159978DB21F0004183468846A84A94
:10456000A84BFBF710FF0022A74BFBF765FEFCF7FB
:1045700064F80990FCF743F806460F469C4A5346F8
:10458000FBF701FF43465A46FBF7FAFE80468A4690
:10459000984A994B30463946FBF7F5FE2A0D01251E
:1045A0000B9242465346FBF7EBFE032DC4E9000194
:1045B00039D00B98C1F30A51401A05EB4511113956
:1045C000814230DA9148C346784400EB0510CDF8BB
:1045D0000CA00C90D0E9002330463946FBF7D3FEFF
:1045E00002460B460491069058460399FBF7C5FE18
:1045F00080468A4602460B4658460399FBF7BDFEA5
:10460000049B069AFBF7B9FE83460C980391394642
:10461000D0E902233046FBF7B6FE5A46039BFBF770
:10462000ACFE6D1CBDE707980028A2BF099817B023
:10463000BDE8F08F616881F000416160099817B0B2
:104640004042BDE8F08FFFE784461598C1F313019F
:10465000C0F30A50A0F2F5304FEA601800F01F06D0
:10466000C6F12000139000200690079041F4801EB0
:1046700005206D4676B1664A08EB00017A4452F88F
:10468000213002EB8101B3404A68139922FA01F10B
:10469000194305E05F4908EB0002794451F8221004
:1046A000A1FB0E27A1FB0C131A449A4234BF01232D
:1046B000002303EB070A05EB8003D3E901B70F449E
:1046C0008F4234BF0121002193448B4411B19345A3
:1046D00002D903E0934501D2012100E00021C3E9A2
:1046E00001B7514445F82010011EA0F10100C1DCC2
:1046F0000298059F00F10050800F12900298DDE9AA
:1047000003568000FBF77BFF834628460D91FBF79D
:1047100087FF6FF01D02FCF713F9CDE90E0130465B
:10472000FBF77EFF6FF03D02FCF70AF980468A46F0
:104730003846FBF775FF6FF05D02FCF701F907469D
:10474000424653461191FBF777FDDDE90E23FBF757
:1047500073FD5A460D9BFBF76FFD00250E465A462A
:1047600028460D9BFBF709FEDDE90E23FBF705FE4E
:1047700042465346FBF701FE3A46119BFBF700FE0B
:10478000DFF898A0244A5346FBF7FDFD074688460C
:10479000234A244B31462846FBF7F5FD3A4643466B
:1047A000FBF74AFD074688464FF0A842534631467C
:1047B0002846FBF7E8FD3A464346FBF73DFD159AD0
:1047C00012F0004F04D0129A81F00041524212922E
:1047D000C4E90001129817B0BDE8F08FFB21E93F52
:1047E0007CD90240FB21F93F7370032E8A19A33B49
:1047F000000040543163621A61B4D03DFB2139415D
:1048000083C8C96D305FE43F0000E03F6C070000E3
:10481000E8060000CA060000182D4454FB21F93DAB
:104820003326A611460B113C2DE9FF4D21F000481F
:1048300007460C46B8F1795F08DAFBF7FEFE002860
:1048400001BF0020324904B0BDE8F08D3A4623464E
:1048500010461946FBF797FD054602462D480E46C1
:104860000B460621784400F05DF82A463346FBF7F4
:104870008AFDDDE9022382468B4638462146FBF756
:1048800082FD04460F4652465B4628463146FBF7FA
:104890007AFD22463B46FBF770FD07468A464FF0FD
:1048A000FF3228463146FCF74BF81B4A90450ADA9E
:1048B0003A465346FBF761FD04B00022BDE8F04DD7
:1048C000134BFBF75DBD154A4245A8BFA8F500157F
:1048D0004FF00004B8BF124D22462B46FBF74DFDAA
:1048E0000646884622462B4600200949FBF745FD2F
:1048F00004460D463A46534630464146FBF73DFDD9
:1049000004B022462B46BDE8F04DFBF739BD000050
:104910000000F03FA00400003333D33F0000E93F24
:104920000000D23F2DE9F0414F1E00EBC7010446C5
:10493000D1E9000115461E4637F006020DD02A4681
:104940003346FBF720FD7F1E04EBC703D3E90023AA
:10495000FBF772FC37F00602F1D1022F25D0042FAD
:1049600013D0062F18BFBDE8F0812A463346FBF767
:104970000AFDD4E90A23FBF75FFC2A463346FBF71E
:1049800002FDD4E90823FBF757FC2A463346FBF720
:10499000FAFCD4E90623FBF74FFC2A463346FBF723
:1049A000F2FCD4E90423FBF747FC2A463346FBF725
:1049B000EAFCD4E90223FBF73FFC2A463346FBF727
:1049C000E2FCD4E90023BDE8F041FBF735BC000070
:1049D0002DE9FF4D054621F0004084B00C46B0F1B2
:1049E000795F0BDA2846FFF747FD042808BF00F07F
:1049F0006FF8284608B02146BDE8F08D2A460B46E0
:104A00001046FBF7C0FC06460F462A462346FBF736
:104A1000BAFC804626488A4632463B460521784401
:104A2000FFF780FF83461098029160B3214A224B22
:104A300040465146FBF7A7FCCDE900015A464046E7
:104A40005146029BFBF79FFC82468846DDE9060142
:104A50004FF0FF32FBF774FF52464346FBF78DFCE5
:104A600032463B46FBF78FFCDDE90623FBF785FC6E
:104A7000DDE90023FBF781FC08B02A462346BDE8A8
:104A8000F04DFBF77DBC0B465A4630463946FBF7E6
:104A90007AFC084A084BFBF7CFFB42465346FBF72C
:104AA00072FC08B02A462346BDE8F04DFBF7C4BBB4
:104AB000E6030000495555555555C5BF0122FBF782
:104AC0003FBF0022134610461146FBF7CEBC000044
:104AD000024A00201107FBF733BF000001FDFFFF72
:104AE00002E008C8121F08C1002AFAD170477047B7
:104AF000002001E001C1121F002AFBD17047000015
:104B000001490860704700000000002000B5244BF8
:104B100021F0004287B09A42DCBF0022134629DD13
:104B2000204B9A4208D140B94FF00100FFF7E8FF4F
:104B3000FFF7C7FF07B000BD03DBFFF7BFFF07B0FC
:104B400000BD02AAFFF7ACFC10F0030104BF0DF199
:104B5000080C9CE80F000DD0012001290ED002297D
:104B600014D00DF1080C00909CE80F00FFF730FF07
:104B700007B000BDFFF758FE07B000BD0DF1080CEF
:104B800000909CE80F00FFF723FF05E00DF1080CF3
:104B90009CE80F00FFF748FE07B081F0004100BD20
:104BA000FB21E93F0000F07F70B50C460546FBF79E
:104BB0009AFE00F07040B0F1005F07D024F0004092
:104BC000C0F1FF40C00F04BF204670BD284670BD35
:104BD00070B514461D460E46002814BF0121002161
:104BE000314321F00041C1F17F6101F1E041C90F82
:104BF00016D1002C14BF01210021294321F00041CE
:104C0000C1F17F6101F1E041C90F09D11449B1EB54
:104C1000460F08BF00281CD0690008BF002C18D020
:104C20003146FBF71DFE024640F2FF7030EA11509C
:104C30000DD0F017B0EBE17F09D0084665F31E00F8
:104C400084460B4620466146FBF79AFB0246104617
:104C500070BD0120FFF754FFBDE87040FFF731BF82
:104C60000000E0FF00B5254B21F0004287B09A42DA
:104C700003DC0022134600922BE0214B9A4208D11C
:104C800040B94FF00100FFF73BFFFFF71AFF07B0F5
:104C900000BD03DBFFF712FF07B000BD02AAFFF75C
:104CA000FFFB10F003014FF001000DD0012914D0DB
:104CB00002291AD00DF1080C9CE80F00FFF7B4FD93
:104CC00007B081F0004100BD0DF1080C00909CE898
:104CD0000F00FFF77DFE07B000BD0DF1080C9CE84A
:104CE0000F00FFF7A1FD07B000BD0DF1080C00900B
:104CF0009CE80F00FFF76CFEE2E70000FB21E93FB4
:104D00000000F07F000000004C5555555555A53F5B
:104D10007751C1166CC156BF9015CB19A001FA3E50
:104D2000AD529C804F7E92BEC4B1B4BD9EEE213E7A
:104D3000D43888BEE9FAA8BD00004054FB21F93FF1
:104D40003163621A61B4D03D0000601A61B4D03D95
:104D50007370032E8A19A33B0000002E8A19A33B0F
:104D6000C14920259A837B39000000000000000023
:104D70006E83F9A22915444ED15727FCC0DD34F5C6
:104D8000999562DB4190433CAB6351FE61C5BBDE4C
:104D90003A6E24B7E0D24D42EA2E49061C92D10960
:104DA0001CEB1DFE3EA729B1F53582E88444BB2EDD
:104DB00026709CE9417E5FB439D69139F43953832A
:104DC0008B5F849C3B28F9BDFF97F81F0F9805DE89
:104DD0008B112FEF1F6D0A5ACF7E366DB709CB2787
:104DE000663F464F2DEA5F9EC7BA27757BF1E5EB1C
:104DF000F739073DEA92528AB15FFB6B085D8D1F60
:104E00004630035600000000A6F810111111813F32
:104E1000D561C119A0012ABF7DFEB157E31DC73E70
:104E2000EB9C2B8AE6E55ABE7CD5CF5A3AD9E53DB4
:104E30000102000000000000000001020304060758
:104E4000080900000000010203040203040506072C
:104E500008090A0B0C0D0E0F10100000804E000800
:104E60000000002020000000E04A0008A04E0008DA
:104E70002000002060050000F04A0008000000004B
:104E80000000000007000000FFFFFFFFC3F54840DF
:104E900001000000100000000024F40000000000E9
:04000005080000ED02
:00000001FF
